S01700005072696D65725F50726F6772616D612E7372656306
S11300000C9434000C9446000C9446000C94460066
S11300100C9446000C9446000C9446000C94460044
S11300200C9446000C9446000C9446000C94460034
S11300300C9446000C9446000C9494000C944600D6
S11300400C9446000C9446000C9446000C94460014
S11300500C9446000C9448000C9446000C94460002
S11300600C9446000C94460011241FBECFEFD8E038
S1130070DEBFCDBF21E0A0E0B1E001C01D92AA30F7
S1130080B207E1F70E949E000C94BE000C9400009D
S11300901F920F920FB60F9211242F933F934F93F9
S11300A05F938F939F93EF93FF9320917800309108
S11300B079003093010120930001E2E0F1E08281B4
S11300C09381880F991FA901440F551F440F551F91
S11300D0240F351F280F391F84819581880F991F9C
S11300E0880F991FA901480F591F26813781C9011B
S11300F0880F991F280F391FCA01820F931F9183FC
S11301008083938382839583848397838683FF91FB
S1130110EF919F918F915F914F913F912F910F900C
S11301200FBE0F901F9018951F920F920FB60F924B
S113013011240F900FBE0F901F90189584B19FEF5C
S113014094B9ECE7F0E0808180648083EAE7F0E032
S11301508081896A8083EBE7F0E08081836080831B
S113016097BD84B5826084BD85B5826085BDEEE6A9
S1130170F0E08081826080837894FFCFF894FFCF91
S9030000FC
